{
  "_format": "hh-sol-artifact-1",
  "contractName": "tradingInCrypto",
  "sourceName": "contracts/tradingInCrypto.sol",
  "abi": [
    {
      "inputs": [
        {
          "internalType": "string",
          "name": "uri",
          "type": "string"
        }
      ],
      "stateMutability": "nonpayable",
      "type": "constructor"
    },
    {
      "inputs": [],
      "name": "AllReadyAgreed",
      "type": "error"
    },
    {
      "inputs": [],
      "name": "AlreadyAddedBL",
      "type": "error"
    },
    {
      "inputs": [],
      "name": "CurrencyNotAllowed",
      "type": "error"
    },
    {
      "inputs": [],
      "name": "InvalidBuyer",
      "type": "error"
    },
    {
      "inputs": [],
      "name": "InvalidCallerAddress",
      "type": "error"
    },
    {
      "inputs": [],
      "name": "InvalidSeller",
      "type": "error"
    },
    {
      "inputs": [],
      "name": "InvalidTradeNumber",
      "type": "error"
    },
    {
      "inputs": [],
      "name": "InvalidTradeType",
      "type": "error"
    },
    {
      "inputs": [],
      "name": "InvalidTrader",
      "type": "error"
    },
    {
      "inputs": [],
      "name": "NotAcceptedYet",
      "type": "error"
    },
    {
      "inputs": [],
      "name": "NotBLAddedYet",
      "type": "error"
    },
    {
      "inputs": [],
      "name": "TradeCompleted",
      "type": "error"
    },
    {
      "anonymous": false,
      "inputs": [
        {
          "indexed": true,
          "internalType": "bytes32",
          "name": "role",
          "type": "bytes32"
        },
        {
          "indexed": true,
          "internalType": "bytes32",
          "name": "previousAdminRole",
          "type": "bytes32"
        },
        {
          "indexed": true,
          "internalType": "bytes32",
          "name": "newAdminRole",
          "type": "bytes32"
        }
      ],
      "name": "RoleAdminChanged",
      "type": "event"
    },
    {
      "anonymous": false,
      "inputs": [
        {
          "indexed": true,
          "internalType": "bytes32",
          "name": "role",
          "type": "bytes32"
        },
        {
          "indexed": true,
          "internalType": "address",
          "name": "account",
          "type": "address"
        },
        {
          "indexed": true,
          "internalType": "address",
          "name": "sender",
          "type": "address"
        }
      ],
      "name": "RoleGranted",
      "type": "event"
    },
    {
      "anonymous": false,
      "inputs": [
        {
          "indexed": true,
          "internalType": "bytes32",
          "name": "role",
          "type": "bytes32"
        },
        {
          "indexed": true,
          "internalType": "address",
          "name": "account",
          "type": "address"
        },
        {
          "indexed": true,
          "internalType": "address",
          "name": "sender",
          "type": "address"
        }
      ],
      "name": "RoleRevoked",
      "type": "event"
    },
    {
      "inputs": [],
      "name": "BUYER_ROLE",
      "outputs": [
        {
          "internalType": "bytes32",
          "name": "",
          "type": "bytes32"
        }
      ],
      "stateMutability": "view",
      "type": "function"
    },
    {
      "inputs": [],
      "name": "DEFAULT_ADMIN_ROLE",
      "outputs": [
        {
          "internalType": "bytes32",
          "name": "",
          "type": "bytes32"
        }
      ],
      "stateMutability": "view",
      "type": "function"
    },
    {
      "inputs": [],
      "name": "SELLER_ROLE",
      "outputs": [
        {
          "internalType": "bytes32",
          "name": "",
          "type": "bytes32"
        }
      ],
      "stateMutability": "view",
      "type": "function"
    },
    {
      "inputs": [],
      "name": "TRADER_ROLE",
      "outputs": [
        {
          "internalType": "bytes32",
          "name": "",
          "type": "bytes32"
        }
      ],
      "stateMutability": "view",
      "type": "function"
    },
    {
      "inputs": [
        {
          "internalType": "bytes32",
          "name": "currency",
          "type": "bytes32"
        },
        {
          "internalType": "address",
          "name": "currencyAddress",
          "type": "address"
        }
      ],
      "name": "addCurrency",
      "outputs": [],
      "stateMutability": "nonpayable",
      "type": "function"
    },
    {
      "inputs": [
        {
          "internalType": "bytes32",
          "name": "currency",
          "type": "bytes32"
        }
      ],
      "name": "addressCurrency",
      "outputs": [
        {
          "internalType": "address",
          "name": "",
          "type": "address"
        }
      ],
      "stateMutability": "view",
      "type": "function"
    },
    {
      "inputs": [
        {
          "internalType": "uint256",
          "name": "tradeNumber",
          "type": "uint256"
        }
      ],
      "name": "agreeToTrade",
      "outputs": [],
      "stateMutability": "nonpayable",
      "type": "function"
    },
    {
      "inputs": [],
      "name": "allCurrenciesAllowed",
      "outputs": [
        {
          "internalType": "bytes32[]",
          "name": "",
          "type": "bytes32[]"
        }
      ],
      "stateMutability": "view",
      "type": "function"
    },
    {
      "inputs": [],
      "name": "allTradingNumbers",
      "outputs": [
        {
          "internalType": "uint256[]",
          "name": "",
          "type": "uint256[]"
        }
      ],
      "stateMutability": "view",
      "type": "function"
    },
    {
      "inputs": [
        {
          "internalType": "uint256[]",
          "name": "tradingNumbers",
          "type": "uint256[]"
        }
      ],
      "name": "batchDetailsTrades",
      "outputs": [
        {
          "components": [
            {
              "internalType": "uint256",
              "name": "tradeNumber",
              "type": "uint256"
            },
            {
              "internalType": "string",
              "name": "assetName",
              "type": "string"
            },
            {
              "internalType": "bytes32",
              "name": "currency",
              "type": "bytes32"
            },
            {
              "internalType": "address",
              "name": "fromAddress",
              "type": "address"
            },
            {
              "internalType": "address",
              "name": "toAddress",
              "type": "address"
            },
            {
              "internalType": "uint256",
              "name": "totalAmount",
              "type": "uint256"
            },
            {
              "internalType": "string",
              "name": "blHash",
              "type": "string"
            },
            {
              "internalType": "bool",
              "name": "acceptTrade",
              "type": "bool"
            },
            {
              "internalType": "bool",
              "name": "verifyBl",
              "type": "bool"
            },
            {
              "internalType": "uint256",
              "name": "tradeType",
              "type": "uint256"
            }
          ],
          "internalType": "struct tradingInCryptoStorage.trading[]",
          "name": "",
          "type": "tuple[]"
        }
      ],
      "stateMutability": "view",
      "type": "function"
    },
    {
      "inputs": [
        {
          "internalType": "uint256",
          "name": "tradeNumber",
          "type": "uint256"
        },
        {
          "internalType": "string",
          "name": "assetName",
          "type": "string"
        },
        {
          "internalType": "bytes32",
          "name": "currency",
          "type": "bytes32"
        },
        {
          "internalType": "address",
          "name": "walletAddress",
          "type": "address"
        },
        {
          "internalType": "uint256",
          "name": "totalAmount",
          "type": "uint256"
        },
        {
          "internalType": "uint256",
          "name": "tradeType",
          "type": "uint256"
        }
      ],
      "name": "createtrade",
      "outputs": [],
      "stateMutability": "nonpayable",
      "type": "function"
    },
    {
      "inputs": [
        {
          "internalType": "bytes32",
          "name": "role",
          "type": "bytes32"
        }
      ],
      "name": "getRoleAdmin",
      "outputs": [
        {
          "internalType": "bytes32",
          "name": "",
          "type": "bytes32"
        }
      ],
      "stateMutability": "view",
      "type": "function"
    },
    {
      "inputs": [
        {
          "internalType": "uint256",
          "name": "tradeNumber",
          "type": "uint256"
        }
      ],
      "name": "getTradingHash",
      "outputs": [
        {
          "internalType": "string",
          "name": "",
          "type": "string"
        }
      ],
      "stateMutability": "view",
      "type": "function"
    },
    {
      "inputs": [
        {
          "internalType": "bytes32",
          "name": "role",
          "type": "bytes32"
        },
        {
          "internalType": "address",
          "name": "account",
          "type": "address"
        }
      ],
      "name": "grantRole",
      "outputs": [],
      "stateMutability": "nonpayable",
      "type": "function"
    },
    {
      "inputs": [
        {
          "internalType": "bytes32",
          "name": "role",
          "type": "bytes32"
        },
        {
          "internalType": "address",
          "name": "account",
          "type": "address"
        }
      ],
      "name": "hasRole",
      "outputs": [
        {
          "internalType": "bool",
          "name": "",
          "type": "bool"
        }
      ],
      "stateMutability": "view",
      "type": "function"
    },
    {
      "inputs": [
        {
          "internalType": "bytes32",
          "name": "currency",
          "type": "bytes32"
        }
      ],
      "name": "removeCurrency",
      "outputs": [],
      "stateMutability": "nonpayable",
      "type": "function"
    },
    {
      "inputs": [
        {
          "internalType": "bytes32",
          "name": "role",
          "type": "bytes32"
        },
        {
          "internalType": "address",
          "name": "account",
          "type": "address"
        }
      ],
      "name": "renounceRole",
      "outputs": [],
      "stateMutability": "nonpayable",
      "type": "function"
    },
    {
      "inputs": [
        {
          "internalType": "bytes32",
          "name": "role",
          "type": "bytes32"
        },
        {
          "internalType": "address",
          "name": "account",
          "type": "address"
        }
      ],
      "name": "revokeRole",
      "outputs": [],
      "stateMutability": "nonpayable",
      "type": "function"
    },
    {
      "inputs": [
        {
          "internalType": "bytes4",
          "name": "interfaceId",
          "type": "bytes4"
        }
      ],
      "name": "supportsInterface",
      "outputs": [
        {
          "internalType": "bool",
          "name": "",
          "type": "bool"
        }
      ],
      "stateMutability": "view",
      "type": "function"
    },
    {
      "inputs": [],
      "name": "totalTrades",
      "outputs": [
        {
          "internalType": "uint256",
          "name": "",
          "type": "uint256"
        }
      ],
      "stateMutability": "view",
      "type": "function"
    },
    {
      "inputs": [
        {
          "internalType": "uint256",
          "name": "index",
          "type": "uint256"
        }
      ],
      "name": "totalTradesNumberByIndex",
      "outputs": [
        {
          "internalType": "uint256",
          "name": "",
          "type": "uint256"
        }
      ],
      "stateMutability": "view",
      "type": "function"
    },
    {
      "inputs": [
        {
          "internalType": "uint256",
          "name": "tradeNumber",
          "type": "uint256"
        }
      ],
      "name": "tradingDetails",
      "outputs": [
        {
          "internalType": "uint256",
          "name": "TradeNumber",
          "type": "uint256"
        },
        {
          "internalType": "string",
          "name": "AssetName",
          "type": "string"
        },
        {
          "internalType": "bytes32",
          "name": "Currency",
          "type": "bytes32"
        },
        {
          "internalType": "address",
          "name": "FromAddress",
          "type": "address"
        },
        {
          "internalType": "address",
          "name": "ToAddress",
          "type": "address"
        },
        {
          "internalType": "uint256",
          "name": "TotalAmount",
          "type": "uint256"
        },
        {
          "internalType": "string",
          "name": "TradeBL",
          "type": "string"
        }
      ],
      "stateMutability": "view",
      "type": "function"
    },
    {
      "inputs": [
        {
          "internalType": "uint256",
          "name": "tradeNumber",
          "type": "uint256"
        },
        {
          "internalType": "string",
          "name": "hash",
          "type": "string"
        }
      ],
      "name": "updateBL",
      "outputs": [],
      "stateMutability": "nonpayable",
      "type": "function"
    },
    {
      "inputs": [
        {
          "internalType": "string",
          "name": "uri",
          "type": "string"
        }
      ],
      "name": "updateBaseUri",
      "outputs": [],
      "stateMutability": "nonpayable",
      "type": "function"
    },
    {
      "inputs": [
        {
          "internalType": "uint256",
          "name": "tradeNumber",
          "type": "uint256"
        }
      ],
      "name": "verifyBL",
      "outputs": [],
      "stateMutability": "nonpayable",
      "type": "function"
    }
  ],
  "bytecode": "0x60806040523480156200001157600080fd5b5060405162003eea38038062003eea8339818101604052810190620000379190620004b2565b80600790805190602001906200004f92919062000265565b50620000656000801b336200010260201b60201c565b620000977f43f25613eb2f15fb17222a5d424ca2655743e71265d98e4b93c05e5fb589ecde336200010260201b60201c565b620000c97ffacaf2747a7486cf5730e9265973fb54447d3ace6e7e4711f6360826b0731941336200010260201b60201c565b620000fb7ff8cd32ed93fc2f9fc78152a14807c9609af3d99c5fe4dc6b106a801aaddfe90e336200010260201b60201c565b5062000568565b620001148282620001f360201b60201c565b620001ef57600160008084815260200190815260200160002060000160008373ffffffffffffffffffffffffffffffffffffffff1673ffffffffffffffffffffffffffffffffffffffff16815260200190815260200160002060006101000a81548160ff021916908315150217905550620001946200025d60201b60201c565b73ffffffffffffffffffffffffffffffffffffffff168173ffffffffffffffffffffffffffffffffffffffff16837f2f8788117e7eff1d82e926ec794901d17c78024a50270940304540a733656f0d60405160405180910390a45b5050565b600080600084815260200190815260200160002060000160008373ffffffffffffffffffffffffffffffffffffffff1673ffffffffffffffffffffffffffffffffffffffff16815260200190815260200160002060009054906101000a900460ff16905092915050565b600033905090565b828054620002739062000532565b90600052602060002090601f016020900481019282620002975760008555620002e3565b82601f10620002b257805160ff1916838001178555620002e3565b82800160010185558215620002e3579182015b82811115620002e2578251825591602001919060010190620002c5565b5b509050620002f29190620002f6565b5090565b5b8082111562000311576000816000905550600101620002f7565b5090565b6000604051905090565b600080fd5b600080fd5b600080fd5b600080fd5b6000601f19601f8301169050919050565b7f4e487b7100000000000000000000000000000000000000000000000000000000600052604160045260246000fd5b6200037e8262000333565b810181811067ffffffffffffffff82111715620003a0576200039f62000344565b5b80604052505050565b6000620003b562000315565b9050620003c3828262000373565b919050565b600067ffffffffffffffff821115620003e657620003e562000344565b5b620003f18262000333565b9050602081019050919050565b60005b838110156200041e57808201518184015260208101905062000401565b838111156200042e576000848401525b50505050565b60006200044b6200044584620003c8565b620003a9565b9050828152602081018484840111156200046a57620004696200032e565b5b62000477848285620003fe565b509392505050565b600082601f83011262000497576200049662000329565b5b8151620004a984826020860162000434565b91505092915050565b600060208284031215620004cb57620004ca6200031f565b5b600082015167ffffffffffffffff811115620004ec57620004eb62000324565b5b620004fa848285016200047f565b91505092915050565b7f4e487b7100000000000000000000000000000000000000000000000000000000600052602260045260246000fd5b600060028204905060018216806200054b57607f821691505b6020821081141562000562576200056162000503565b5b50919050565b61397280620005786000396000f3fe608060405234801561001057600080fd5b50600436106101735760003560e01c8063954679da116100de578063c47d62bd11610097578063dbe4613d11610071578063dbe4613d14610472578063e275c99714610490578063efd4ad5a146104ae578063f0a56fc8146104ca57610173565b8063c47d62bd1461041c578063c7d63a131461043a578063d547741f1461045657610173565b8063954679da1461032e578063a217fddf1461035e578063a4a591b71461037c578063a8ca9f68146103ac578063af4a9fe5146103ca578063b4b83e931461040057610173565b80633d1d6a7f116101305780633d1d6a7f14610248578063437860141461026457806346da743e14610280578063770994d0146102b05780637a01a1da146102e057806391d14854146102fe57610173565b806301ffc9a714610178578063248a9ca3146101a85780632c535497146101d85780632f2ff15d146101f457806336568abe1461021057806339f7e37f1461022c575b600080fd5b610192600480360381019061018d919061287e565b6104e8565b60405161019f91906128c6565b60405180910390f35b6101c260048036038101906101bd9190612917565b610562565b6040516101cf9190612953565b60405180910390f35b6101f260048036038101906101ed9190612aea565b610581565b005b61020e60048036038101906102099190612ba4565b61071c565b005b61022a60048036038101906102259190612ba4565b61073d565b005b61024660048036038101906102419190612be4565b6107c0565b005b610262600480360381019061025d9190612c2d565b6107e8565b005b61027e60048036038101906102799190612c2d565b610b3b565b005b61029a60048036038101906102959190612917565b610db7565b6040516102a79190612c69565b60405180910390f35b6102ca60048036038101906102c59190612d4c565b610df4565b6040516102d79190612ffc565b60405180910390f35b6102e86110fb565b6040516102f59190612953565b60405180910390f35b61031860048036038101906103139190612ba4565b61111f565b60405161032591906128c6565b60405180910390f35b61034860048036038101906103439190612c2d565b611189565b6040516103559190613068565b60405180910390f35b610366611251565b6040516103739190612953565b60405180910390f35b61039660048036038101906103919190612c2d565b611258565b6040516103a39190613099565b60405180910390f35b6103b4611275565b6040516103c19190613163565b60405180910390f35b6103e460048036038101906103df9190612c2d565b611330565b6040516103f79796959493929190613185565b60405180910390f35b61041a60048036038101906104159190613202565b611370565b005b610424611712565b604051610431919061335a565b60405180910390f35b610454600480360381019061044f9190612ba4565b6117c0565b005b610470600480360381019061046b9190612ba4565b6117dc565b005b61047a6117fd565b6040516104879190612953565b60405180910390f35b610498611821565b6040516104a59190613099565b60405180910390f35b6104c860048036038101906104c39190612917565b611832565b005b6104d261184c565b6040516104df9190612953565b60405180910390f35b60007f7965db0b000000000000000000000000000000000000000000000000000000007bffffffffffffffffffffffffffffffffffffffffffffffffffffffff1916827bffffffffffffffffffffffffffffffffffffffffffffffffffffffff1916148061055b575061055a82611870565b5b9050919050565b6000806000838152602001908152602001600020600101549050919050565b61059c600860008481526020019081526020016000206118da565b6105d2576040517f18fec92a00000000000000000000000000000000000000000000000000000000815260040160405180910390fd5b6105ed600860008481526020019081526020016000206118fa565b610623576040517f36f9f28200000000000000000000000000000000000000000000000000000000815260040160405180910390fd5b61063e60086000848152602001908152602001600020611915565b610674576040517fd9d0f22f00000000000000000000000000000000000000000000000000000000815260040160405180910390fd5b3373ffffffffffffffffffffffffffffffffffffffff166106a660086000858152602001908152602001600020611931565b73ffffffffffffffffffffffffffffffffffffffff16146106f3576040517fc7e21ef000000000000000000000000000000000000000000000000000000000815260040160405180910390fd5b610718816008600085815260200190815260200160002061195f90919063ffffffff16565b5050565b61072582610562565b61072e8161197c565b6107388383611990565b505050565b610745611a70565b73ffffffffffffffffffffffffffffffffffffffff168173ffffffffffffffffffffffffffffffffffffffff16146107b2576040517f08c379a00000000000000000000000000000000000000000000000000000000081526004016107a9906133ee565b60405180910390fd5b6107bc8282611a78565b5050565b6000801b6107cd8161197c565b81600790805190602001906107e39291906126e9565b505050565b610803600860008381526020019081526020016000206118da565b610839576040517f18fec92a00000000000000000000000000000000000000000000000000000000815260040160405180910390fd5b610854600860008381526020019081526020016000206118fa565b1561088b576040517fe5f4e72100000000000000000000000000000000000000000000000000000000815260040160405180910390fd5b60016108a860086000848152602001908152602001600020611b59565b14806108ce575060026108cc60086000848152602001908152602001600020611b59565b145b15610957573373ffffffffffffffffffffffffffffffffffffffff1661090560086000848152602001908152602001600020611b67565b73ffffffffffffffffffffffffffffffffffffffff1614610952576040517fc7e21ef000000000000000000000000000000000000000000000000000000000815260040160405180910390fd5b610a31565b600361097460086000848152602001908152602001600020611b59565b14156109fe573373ffffffffffffffffffffffffffffffffffffffff166109ac60086000848152602001908152602001600020611931565b73ffffffffffffffffffffffffffffffffffffffff16146109f9576040517fc7e21ef000000000000000000000000000000000000000000000000000000000815260040160405180910390fd5b610a30565b6040517f89c4be2c00000000000000000000000000000000000000000000000000000000815260040160405180910390fd5b5b6000610a56610a5160086000858152602001908152602001600020611b95565b610db7565b9050610a7360086000848152602001908152602001600020611ba3565b8073ffffffffffffffffffffffffffffffffffffffff166323b872dd610aaa60086000868152602001908152602001600020611b67565b30610ac660086000888152602001908152602001600020611bc3565b6040518463ffffffff1660e01b8152600401610ae49392919061340e565b602060405180830381600087803b158015610afe57600080fd5b505af1158015610b12573d6000803e3d6000fd5b505050506040513d601f19601f82011682018060405250810190610b369190613471565b505050565b610b56600860008381526020019081526020016000206118da565b610b8c576040517f18fec92a00000000000000000000000000000000000000000000000000000000815260040160405180910390fd5b610ba760086000838152602001908152602001600020611bd1565b15610bde576040517f15c9cc7700000000000000000000000000000000000000000000000000000000815260040160405180910390fd5b610bf960086000838152602001908152602001600020611915565b15610c30576040517f3d50195100000000000000000000000000000000000000000000000000000000815260040160405180910390fd5b3373ffffffffffffffffffffffffffffffffffffffff16610c6260086000848152602001908152602001600020611b67565b73ffffffffffffffffffffffffffffffffffffffff1614610caf576040517fc7e21ef000000000000000000000000000000000000000000000000000000000815260040160405180910390fd5b610cca60086000838152602001908152602001600020611bec565b6000610cef610cea60086000858152602001908152602001600020611b95565b610db7565b90508073ffffffffffffffffffffffffffffffffffffffff1663a9059cbb610d2860086000868152602001908152602001600020611931565b610d4360086000878152602001908152602001600020611bc3565b6040518363ffffffff1660e01b8152600401610d6092919061349e565b602060405180830381600087803b158015610d7a57600080fd5b505af1158015610d8e573d6000803e3d6000fd5b505050506040513d601f19601f82011682018060405250810190610db29190613471565b505050565b60006001600083815260200190815260200160002060009054906101000a900473ffffffffffffffffffffffffffffffffffffffff169050919050565b60606000825167ffffffffffffffff811115610e1357610e126129bf565b5b604051908082528060200260200182016040528015610e4c57816020015b610e3961276f565b815260200190600190039081610e315790505b50905060005b83518110156110f15760086000858381518110610e7257610e716134c7565b5b602002602001015181526020019081526020016000206040518061014001604052908160008201548152602001600182018054610eae90613525565b80601f0160208091040260200160405190810160405280929190818152602001828054610eda90613525565b8015610f275780601f10610efc57610100808354040283529160200191610f27565b820191906000526020600020905b815481529060010190602001808311610f0a57829003601f168201915b50505050508152602001600282015481526020016003820160009054906101000a900473ffffffffffffffffffffffffffffffffffffffff1673ffffffffffffffffffffffffffffffffffffffff1673ffffffffffffffffffffffffffffffffffffffff1681526020016004820160009054906101000a900473ffffffffffffffffffffffffffffffffffffffff1673ffffffffffffffffffffffffffffffffffffffff1673ffffffffffffffffffffffffffffffffffffffff1681526020016005820154815260200160068201805461100090613525565b80601f016020809104026020016040519081016040528092919081815260200182805461102c90613525565b80156110795780601f1061104e57610100808354040283529160200191611079565b820191906000526020600020905b81548152906001019060200180831161105c57829003601f168201915b505050505081526020016007820160009054906101000a900460ff161515151581526020016007820160019054906101000a900460ff161515151581526020016008820154815250508282815181106110d5576110d46134c7565b5b6020026020010181905250806110ea90613586565b9050610e52565b5080915050919050565b7ff8cd32ed93fc2f9fc78152a14807c9609af3d99c5fe4dc6b106a801aaddfe90e81565b600080600084815260200190815260200160002060000160008373ffffffffffffffffffffffffffffffffffffffff1673ffffffffffffffffffffffffffffffffffffffff16815260200190815260200160002060009054906101000a900460ff16905092915050565b60606111a6600860008481526020019081526020016000206118da565b6111dc576040517f18fec92a00000000000000000000000000000000000000000000000000000000815260040160405180910390fd5b60006111e6611c0c565b9050600061120560086000868152602001908152602001600020611c9e565b905060008251116112255760405180602001604052806000815250611248565b818160405160200161123892919061360b565b6040516020818303038152906040525b92505050919050565b6000801b81565b600061126e826005611d3490919063ffffffff16565b9050919050565b606060006112836002611d4e565b905060008167ffffffffffffffff8111156112a1576112a06129bf565b5b6040519080825280602002602001820160405280156112cf5781602001602082028036833780820191505090505b50905060005b828110156113275760006112f3826002611d6390919063ffffffff16565b905080838381518110611309576113086134c7565b5b602002602001018181525050508061132090613586565b90506112d5565b50809250505090565b600060606000806000806060611357600860008a8152602001908152602001600020611d7a565b9650965096509650965096509650919395979092949650565b60008061138e600860008a81526020019081526020016000206118da565b156113c5576040517f18fec92a00000000000000000000000000000000000000000000000000000000815260040160405180910390fd5b600073ffffffffffffffffffffffffffffffffffffffff166113e687610db7565b73ffffffffffffffffffffffffffffffffffffffff161415611434576040517f25f2f2ff00000000000000000000000000000000000000000000000000000000815260040160405180910390fd5b6001831415611508576114677f43f25613eb2f15fb17222a5d424ca2655743e71265d98e4b93c05e5fb589ecde3361111f565b61149d576040517fbab7ca3500000000000000000000000000000000000000000000000000000000815260040160405180910390fd5b6114c77ffacaf2747a7486cf5730e9265973fb54447d3ace6e7e4711f6360826b07319418661111f565b6114fd576040517ffb7595a200000000000000000000000000000000000000000000000000000000815260040160405180910390fd5b3391508490506116e4565b60028314156115dc5761153b7ffacaf2747a7486cf5730e9265973fb54447d3ace6e7e4711f6360826b07319413361111f565b611571576040517ffb7595a200000000000000000000000000000000000000000000000000000000815260040160405180910390fd5b61159b7ff8cd32ed93fc2f9fc78152a14807c9609af3d99c5fe4dc6b106a801aaddfe90e8661111f565b6115d1576040517fb1df0e0600000000000000000000000000000000000000000000000000000000815260040160405180910390fd5b3391508490506116e3565b60038314156116b05761160f7ff8cd32ed93fc2f9fc78152a14807c9609af3d99c5fe4dc6b106a801aaddfe90e3361111f565b611645576040517fb1df0e0600000000000000000000000000000000000000000000000000000000815260040160405180910390fd5b61166f7ffacaf2747a7486cf5730e9265973fb54447d3ace6e7e4711f6360826b07319418661111f565b6116a5576040517ffb7595a200000000000000000000000000000000000000000000000000000000815260040160405180910390fd5b8491503390506116e2565b6040517f89c4be2c00000000000000000000000000000000000000000000000000000000815260040160405180910390fd5b5b5b6116f388888885858989611f18565b611707886005611f5890919063ffffffff16565b505050505050505050565b6060600061171e611821565b905060008167ffffffffffffffff81111561173c5761173b6129bf565b5b60405190808252806020026020018201604052801561176a5781602001602082028036833780820191505090505b50905060005b828110156117b757600061178382611258565b905080838381518110611799576117986134c7565b5b60200260200101818152505050806117b090613586565b9050611770565b50809250505090565b6000801b6117cd8161197c565b6117d78383611f72565b505050565b6117e582610562565b6117ee8161197c565b6117f88383611a78565b505050565b7f43f25613eb2f15fb17222a5d424ca2655743e71265d98e4b93c05e5fb589ecde81565b600061182d600561204d565b905090565b6000801b61183f8161197c565b61184882612062565b5050565b7ffacaf2747a7486cf5730e9265973fb54447d3ace6e7e4711f6360826b073194181565b60007f01ffc9a7000000000000000000000000000000000000000000000000000000007bffffffffffffffffffffffffffffffffffffffffffffffffffffffff1916827bffffffffffffffffffffffffffffffffffffffffffffffffffffffff1916149050919050565b6000808260000154146118f057600190506118f5565b600090505b919050565b60008160070160009054906101000a900460ff169050919050565b60008082600601805461192790613525565b9050149050919050565b60008160030160009054906101000a900473ffffffffffffffffffffffffffffffffffffffff169050919050565b808260060190805190602001906119779291906126e9565b505050565b61198d81611988611a70565b61211d565b50565b61199a828261111f565b611a6c57600160008084815260200190815260200160002060000160008373ffffffffffffffffffffffffffffffffffffffff1673ffffffffffffffffffffffffffffffffffffffff16815260200190815260200160002060006101000a81548160ff021916908315150217905550611a11611a70565b73ffffffffffffffffffffffffffffffffffffffff168173ffffffffffffffffffffffffffffffffffffffff16837f2f8788117e7eff1d82e926ec794901d17c78024a50270940304540a733656f0d60405160405180910390a45b5050565b600033905090565b611a82828261111f565b15611b5557600080600084815260200190815260200160002060000160008373ffffffffffffffffffffffffffffffffffffffff1673ffffffffffffffffffffffffffffffffffffffff16815260200190815260200160002060006101000a81548160ff021916908315150217905550611afa611a70565b73ffffffffffffffffffffffffffffffffffffffff168173ffffffffffffffffffffffffffffffffffffffff16837ff6391f5c32d9c69d2a47ea670b442974b53935d1edc7fd64eb21e047a839171b60405160405180910390a45b5050565b600081600801549050919050565b60008160040160009054906101000a900473ffffffffffffffffffffffffffffffffffffffff169050919050565b600081600201549050919050565b60018160070160006101000a81548160ff02191690831515021790555050565b600081600501549050919050565b60008160070160019054906101000a900460ff169050919050565b60018160070160016101000a81548160ff02191690831515021790555050565b606060078054611c1b90613525565b80601f0160208091040260200160405190810160405280929190818152602001828054611c4790613525565b8015611c945780601f10611c6957610100808354040283529160200191611c94565b820191906000526020600020905b815481529060010190602001808311611c7757829003601f168201915b5050505050905090565b6060816006018054611caf90613525565b80601f0160208091040260200160405190810160405280929190818152602001828054611cdb90613525565b8015611d285780601f10611cfd57610100808354040283529160200191611d28565b820191906000526020600020905b815481529060010190602001808311611d0b57829003601f168201915b50505050509050919050565b6000611d4383600001836121a2565b60001c905092915050565b6000611d5c826000016121cd565b9050919050565b6000611d7283600001836121a2565b905092915050565b60006060600080600080606087600001548860010189600201548a60030160009054906101000a900473ffffffffffffffffffffffffffffffffffffffff168b60040160009054906101000a900473ffffffffffffffffffffffffffffffffffffffff168c600501548d600601858054611df390613525565b80601f0160208091040260200160405190810160405280929190818152602001828054611e1f90613525565b8015611e6c5780601f10611e4157610100808354040283529160200191611e6c565b820191906000526020600020905b815481529060010190602001808311611e4f57829003601f168201915b50505050509550808054611e7f90613525565b80601f0160208091040260200160405190810160405280929190818152602001828054611eab90613525565b8015611ef85780601f10611ecd57610100808354040283529160200191611ef8565b820191906000526020600020905b815481529060010190602001808311611edb57829003601f168201915b505050505090509650965096509650965096509650919395979092949650565b6000879050611f4e88888888888888600860008a81526020019081526020016000206121de90979695949392919063ffffffff16565b5050505050505050565b6000611f6a836000018360001b6122ab565b905092915050565b600073ffffffffffffffffffffffffffffffffffffffff168173ffffffffffffffffffffffffffffffffffffffff161415611fe2576040517f08c379a0000000000000000000000000000000000000000000000000000000008152600401611fd9906136a1565b60405180910390fd5b806001600084815260200190815260200160002060006101000a81548173ffffffffffffffffffffffffffffffffffffffff021916908373ffffffffffffffffffffffffffffffffffffffff16021790555061204882600261231b90919063ffffffff16565b505050565b600061205b826000016121cd565b9050919050565b600073ffffffffffffffffffffffffffffffffffffffff166001600083815260200190815260200160002060009054906101000a900473ffffffffffffffffffffffffffffffffffffffff1673ffffffffffffffffffffffffffffffffffffffff1614156120cf57600080fd5b6120e381600261233290919063ffffffff16565b506001600082815260200190815260200160002060006101000a81549073ffffffffffffffffffffffffffffffffffffffff021916905550565b612127828261111f565b61219e5761213481612349565b6121428360001c6020612376565b604051602001612153929190613759565b6040516020818303038152906040526040517f08c379a00000000000000000000000000000000000000000000000000000000081526004016121959190613068565b60405180910390fd5b5050565b60008260000182815481106121ba576121b96134c7565b5b9060005260206000200154905092915050565b600081600001805490509050919050565b868860000181905550858860010190805190602001906121ff9291906126e9565b50848860020181905550838860030160006101000a81548173ffffffffffffffffffffffffffffffffffffffff021916908373ffffffffffffffffffffffffffffffffffffffff160217905550828860040160006101000a81548173ffffffffffffffffffffffffffffffffffffffff021916908373ffffffffffffffffffffffffffffffffffffffff1602179055508188600501819055508088600801819055505050505050505050565b60006122b783836125b2565b612310578260000182908060018154018082558091505060019003906000526020600020016000909190919091505582600001805490508360010160008481526020019081526020016000208190555060019050612315565b600090505b92915050565b600061232a83600001836122ab565b905092915050565b600061234183600001836125d5565b905092915050565b606061236f8273ffffffffffffffffffffffffffffffffffffffff16601460ff16612376565b9050919050565b6060600060028360026123899190613793565b61239391906137ed565b67ffffffffffffffff8111156123ac576123ab6129bf565b5b6040519080825280601f01601f1916602001820160405280156123de5781602001600182028036833780820191505090505b5090507f300000000000000000000000000000000000000000000000000000000000000081600081518110612416576124156134c7565b5b60200101907effffffffffffffffffffffffffffffffffffffffffffffffffffffffffffff1916908160001a9053507f78000000000000000000000000000000000000000000000000000000000000008160018151811061247a576124796134c7565b5b60200101907effffffffffffffffffffffffffffffffffffffffffffffffffffffffffffff1916908160001a905350600060018460026124ba9190613793565b6124c491906137ed565b90505b6001811115612564577f3031323334353637383961626364656600000000000000000000000000000000600f861660108110612506576125056134c7565b5b1a60f81b82828151811061251d5761251c6134c7565b5b60200101907effffffffffffffffffffffffffffffffffffffffffffffffffffffffffffff1916908160001a905350600485901c94508061255d90613843565b90506124c7565b50600084146125a8576040517f08c379a000000000000000000000000000000000000000000000000000000000815260040161259f906138b9565b60405180910390fd5b8091505092915050565b600080836001016000848152602001908152602001600020541415905092915050565b600080836001016000848152602001908152602001600020549050600081146126dd57600060018261260791906138d9565b905060006001866000018054905061261f91906138d9565b905081811461268e5760008660000182815481106126405761263f6134c7565b5b9060005260206000200154905080876000018481548110612664576126636134c7565b5b90600052602060002001819055508387600101600083815260200190815260200160002081905550505b856000018054806126a2576126a161390d565b5b6001900381819060005260206000200160009055905585600101600086815260200190815260200160002060009055600193505050506126e3565b60009150505b92915050565b8280546126f590613525565b90600052602060002090601f016020900481019282612717576000855561275e565b82601f1061273057805160ff191683800117855561275e565b8280016001018555821561275e579182015b8281111561275d578251825591602001919060010190612742565b5b50905061276b91906127f5565b5090565b604051806101400160405280600081526020016060815260200160008019168152602001600073ffffffffffffffffffffffffffffffffffffffff168152602001600073ffffffffffffffffffffffffffffffffffffffff1681526020016000815260200160608152602001600015158152602001600015158152602001600081525090565b5b8082111561280e5760008160009055506001016127f6565b5090565b6000604051905090565b600080fd5b600080fd5b60007fffffffff0000000000000000000000000000000000000000000000000000000082169050919050565b61285b81612826565b811461286657600080fd5b50565b60008135905061287881612852565b92915050565b6000602082840312156128945761289361281c565b5b60006128a284828501612869565b91505092915050565b60008115159050919050565b6128c0816128ab565b82525050565b60006020820190506128db60008301846128b7565b92915050565b6000819050919050565b6128f4816128e1565b81146128ff57600080fd5b50565b600081359050612911816128eb565b92915050565b60006020828403121561292d5761292c61281c565b5b600061293b84828501612902565b91505092915050565b61294d816128e1565b82525050565b60006020820190506129686000830184612944565b92915050565b6000819050919050565b6129818161296e565b811461298c57600080fd5b50565b60008135905061299e81612978565b92915050565b600080fd5b600080fd5b6000601f19601f8301169050919050565b7f4e487b7100000000000000000000000000000000000000000000000000000000600052604160045260246000fd5b6129f7826129ae565b810181811067ffffffffffffffff82111715612a1657612a156129bf565b5b80604052505050565b6000612a29612812565b9050612a3582826129ee565b919050565b600067ffffffffffffffff821115612a5557612a546129bf565b5b612a5e826129ae565b9050602081019050919050565b82818337600083830152505050565b6000612a8d612a8884612a3a565b612a1f565b905082815260208101848484011115612aa957612aa86129a9565b5b612ab4848285612a6b565b509392505050565b600082601f830112612ad157612ad06129a4565b5b8135612ae1848260208601612a7a565b91505092915050565b60008060408385031215612b0157612b0061281c565b5b6000612b0f8582860161298f565b925050602083013567ffffffffffffffff811115612b3057612b2f612821565b5b612b3c85828601612abc565b9150509250929050565b600073ffffffffffffffffffffffffffffffffffffffff82169050919050565b6000612b7182612b46565b9050919050565b612b8181612b66565b8114612b8c57600080fd5b50565b600081359050612b9e81612b78565b92915050565b60008060408385031215612bbb57612bba61281c565b5b6000612bc985828601612902565b9250506020612bda85828601612b8f565b9150509250929050565b600060208284031215612bfa57612bf961281c565b5b600082013567ffffffffffffffff811115612c1857612c17612821565b5b612c2484828501612abc565b91505092915050565b600060208284031215612c4357612c4261281c565b5b6000612c518482850161298f565b91505092915050565b612c6381612b66565b82525050565b6000602082019050612c7e6000830184612c5a565b92915050565b600067ffffffffffffffff821115612c9f57612c9e6129bf565b5b602082029050602081019050919050565b600080fd5b6000612cc8612cc384612c84565b612a1f565b90508083825260208201905060208402830185811115612ceb57612cea612cb0565b5b835b81811015612d145780612d00888261298f565b845260208401935050602081019050612ced565b5050509392505050565b600082601f830112612d3357612d326129a4565b5b8135612d43848260208601612cb5565b91505092915050565b600060208284031215612d6257612d6161281c565b5b600082013567ffffffffffffffff811115612d8057612d7f612821565b5b612d8c84828501612d1e565b91505092915050565b600081519050919050565b600082825260208201905092915050565b6000819050602082019050919050565b612dca8161296e565b82525050565b600081519050919050565b600082825260208201905092915050565b60005b83811015612e0a578082015181840152602081019050612def565b83811115612e19576000848401525b50505050565b6000612e2a82612dd0565b612e348185612ddb565b9350612e44818560208601612dec565b612e4d816129ae565b840191505092915050565b612e61816128e1565b82525050565b612e7081612b66565b82525050565b612e7f816128ab565b82525050565b600061014083016000830151612e9e6000860182612dc1565b5060208301518482036020860152612eb68282612e1f565b9150506040830151612ecb6040860182612e58565b506060830151612ede6060860182612e67565b506080830151612ef16080860182612e67565b5060a0830151612f0460a0860182612dc1565b5060c083015184820360c0860152612f1c8282612e1f565b91505060e0830151612f3160e0860182612e76565b50610100830151612f46610100860182612e76565b50610120830151612f5b610120860182612dc1565b508091505092915050565b6000612f728383612e85565b905092915050565b6000602082019050919050565b6000612f9282612d95565b612f9c8185612da0565b935083602082028501612fae85612db1565b8060005b85811015612fea5784840389528151612fcb8582612f66565b9450612fd683612f7a565b925060208a01995050600181019050612fb2565b50829750879550505050505092915050565b600060208201905081810360008301526130168184612f87565b905092915050565b600082825260208201905092915050565b600061303a82612dd0565b613044818561301e565b9350613054818560208601612dec565b61305d816129ae565b840191505092915050565b60006020820190508181036000830152613082818461302f565b905092915050565b6130938161296e565b82525050565b60006020820190506130ae600083018461308a565b92915050565b600081519050919050565b600082825260208201905092915050565b6000819050602082019050919050565b60006130ec8383612e58565b60208301905092915050565b6000602082019050919050565b6000613110826130b4565b61311a81856130bf565b9350613125836130d0565b8060005b8381101561315657815161313d88826130e0565b9750613148836130f8565b925050600181019050613129565b5085935050505092915050565b6000602082019050818103600083015261317d8184613105565b905092915050565b600060e08201905061319a600083018a61308a565b81810360208301526131ac818961302f565b90506131bb6040830188612944565b6131c86060830187612c5a565b6131d56080830186612c5a565b6131e260a083018561308a565b81810360c08301526131f4818461302f565b905098975050505050505050565b60008060008060008060c0878903121561321f5761321e61281c565b5b600061322d89828a0161298f565b965050602087013567ffffffffffffffff81111561324e5761324d612821565b5b61325a89828a01612abc565b955050604061326b89828a01612902565b945050606061327c89828a01612b8f565b935050608061328d89828a0161298f565b92505060a061329e89828a0161298f565b9150509295509295509295565b600081519050919050565b600082825260208201905092915050565b6000819050602082019050919050565b60006132e38383612dc1565b60208301905092915050565b6000602082019050919050565b6000613307826132ab565b61331181856132b6565b935061331c836132c7565b8060005b8381101561334d57815161333488826132d7565b975061333f836132ef565b925050600181019050613320565b5085935050505092915050565b6000602082019050818103600083015261337481846132fc565b905092915050565b7f416363657373436f6e74726f6c3a2063616e206f6e6c792072656e6f756e636560008201527f20726f6c657320666f722073656c660000000000000000000000000000000000602082015250565b60006133d8602f8361301e565b91506133e38261337c565b604082019050919050565b60006020820190508181036000830152613407816133cb565b9050919050565b60006060820190506134236000830186612c5a565b6134306020830185612c5a565b61343d604083018461308a565b949350505050565b61344e816128ab565b811461345957600080fd5b50565b60008151905061346b81613445565b92915050565b6000602082840312156134875761348661281c565b5b60006134958482850161345c565b91505092915050565b60006040820190506134b36000830185612c5a565b6134c0602083018461308a565b9392505050565b7f4e487b7100000000000000000000000000000000000000000000000000000000600052603260045260246000fd5b7f4e487b7100000000000000000000000000000000000000000000000000000000600052602260045260246000fd5b6000600282049050600182168061353d57607f821691505b60208210811415613551576135506134f6565b5b50919050565b7f4e487b7100000000000000000000000000000000000000000000000000000000600052601160045260246000fd5b60006135918261296e565b91507fffffffffffffffffffffffffffffffffffffffffffffffffffffffffffffffff8214156135c4576135c3613557565b5b600182019050919050565b600081905092915050565b60006135e582612dd0565b6135ef81856135cf565b93506135ff818560208601612dec565b80840191505092915050565b600061361782856135da565b915061362382846135da565b91508190509392505050565b7f416c6c6f77616e6365733a20546865205a65726f20416464726573732069732060008201527f6e6f7420616c6c6f776564000000000000000000000000000000000000000000602082015250565b600061368b602b8361301e565b91506136968261362f565b604082019050919050565b600060208201905081810360008301526136ba8161367e565b9050919050565b7f416363657373436f6e74726f6c3a206163636f756e7420000000000000000000600082015250565b60006136f76017836135cf565b9150613702826136c1565b601782019050919050565b7f206973206d697373696e6720726f6c6520000000000000000000000000000000600082015250565b60006137436011836135cf565b915061374e8261370d565b601182019050919050565b6000613764826136ea565b915061377082856135da565b915061377b82613736565b915061378782846135da565b91508190509392505050565b600061379e8261296e565b91506137a98361296e565b9250817fffffffffffffffffffffffffffffffffffffffffffffffffffffffffffffffff04831182151516156137e2576137e1613557565b5b828202905092915050565b60006137f88261296e565b91506138038361296e565b9250827fffffffffffffffffffffffffffffffffffffffffffffffffffffffffffffffff0382111561383857613837613557565b5b828201905092915050565b600061384e8261296e565b9150600082141561386257613861613557565b5b600182039050919050565b7f537472696e67733a20686578206c656e67746820696e73756666696369656e74600082015250565b60006138a360208361301e565b91506138ae8261386d565b602082019050919050565b600060208201905081810360008301526138d281613896565b9050919050565b60006138e48261296e565b91506138ef8361296e565b92508282101561390257613901613557565b5b828203905092915050565b7f4e487b7100000000000000000000000000000000000000000000000000000000600052603160045260246000fdfea2646970667358221220d404478b574365c6509869d7cc0a156aba958775f4b14819ffe45da34553803e64736f6c63430008090033",
  "linkReferences": {},
  "deployedLinkReferences": {}
}